:100EA4000A128A11662F0313831607148714071571
:100EB400871507160810881008118811081288125F
:100EC400081383120730A000A0001039A100A10C60
:100ED400A10CA10CA10C21080139A100A00010391A
:100EE400A200A20CA20CA20CA20CA2092208013995
:100EF400A200A0000839A300A30CA30CA30C230890
:100F04000139A300A0000839A400A40CA40CA40C6B
:100F1400A40924080139A400A0000439A500A50CE3
:100F2400A50C25080139A500A0000439A600A60CCB
:100F3400A60CA60926080139A600A0000239A700BC
:100F4400A70C27080139A700A0000239A800A80CA3
:100F5400A80928080139A800A0000139A900A90C92
:100F640029080139A900A0000139B000B0093008EE
:100F74000139B00026082905B10025082805B2006A
:100F840021082405B3003108B204B304B4002708CF
:100F94003005B50021082605B60023082605B7004C
:100FA400B508B604B704B800210826052705B9001A
:100FB400220824052605B005C000B908C004C100F4
:100FC400210824052905C200220824052605280530
:100FD400C300C208C304C400B508B704C500B108FF
:100FE400B204C60027082905C700220824052605DF
:0C0FF40028053005C800C708C804C90063
:02400E00B13FC0
:00000001FF
